{
  "contractName": "News",
  "abi": [
    {
      "constant": true,
      "inputs": [],
      "name": "getNews",
      "outputs": [
        {
          "name": "",
          "type": "bytes32[]"
        },
        {
          "name": "",
          "type": "bytes32[]"
        },
        {
          "name": "",
          "type": "bytes32[]"
        },
        {
          "name": "",
          "type": "bytes32[]"
        }
      ],
      "payable": false,
      "stateMutability": "view",
      "type": "function"
    },
    {
      "constant": true,
      "inputs": [
        {
          "name": "val",
          "type": "uint256"
        },
        {
          "name": "pk",
          "type": "uint256"
        },
        {
          "name": "n",
          "type": "uint256"
        }
      ],
      "name": "simplifyPower",
      "outputs": [
        {
          "name": "",
          "type": "uint256"
        }
      ],
      "payable": false,
      "stateMutability": "view",
      "type": "function"
    },
    {
      "constant": false,
      "inputs": [
        {
          "name": "img1",
          "type": "bytes32"
        },
        {
          "name": "img2",
          "type": "bytes32"
        },
        {
          "name": "Msg1",
          "type": "bytes32"
        },
        {
          "name": "Msg2",
          "type": "bytes32"
        }
      ],
      "name": "insertNews",
      "outputs": [],
      "payable": false,
      "stateMutability": "nonpayable",
      "type": "function"
    },
    {
      "constant": false,
      "inputs": [
        {
          "name": "img1",
          "type": "bytes32"
        },
        {
          "name": "img2",
          "type": "bytes32"
        },
        {
          "name": "Msg1",
          "type": "bytes32"
        },
        {
          "name": "Msg2",
          "type": "bytes32"
        },
        {
          "name": "Msg",
          "type": "uint256[]"
        },
        {
          "name": "cipherText",
          "type": "uint256[]"
        },
        {
          "name": "id",
          "type": "uint32"
        },
        {
          "name": "size",
          "type": "uint256"
        },
        {
          "name": "N",
          "type": "uint256"
        }
      ],
      "name": "verify",
      "outputs": [
        {
          "name": "",
          "type": "bool"
        }
      ],
      "payable": false,
      "stateMutability": "nonpayable",
      "type": "function"
    },
    {
      "constant": true,
      "inputs": [
        {
          "name": "id",
          "type": "uint32"
        }
      ],
      "name": "oneNews",
      "outputs": [
        {
          "name": "",
          "type": "bytes32"
        },
        {
          "name": "",
          "type": "bytes32"
        },
        {
          "name": "",
          "type": "bytes32"
        },
        {
          "name": "",
          "type": "bytes32"
        }
      ],
      "payable": false,
      "stateMutability": "view",
      "type": "function"
    },
    {
      "constant": false,
      "inputs": [
        {
          "name": "id",
          "type": "uint32"
        },
        {
          "name": "publicKey",
          "type": "uint32"
        }
      ],
      "name": "createUser",
      "outputs": [],
      "payable": false,
      "stateMutability": "nonpayable",
      "type": "function"
    },
    {
      "inputs": [],
      "payable": false,
      "stateMutability": "nonpayable",
      "type": "constructor"
    }
  ],
  "bytecode": "0x6060604052341561000f57600080fd5b336000806101000a81548173ffffffffffffffffffffffffffffffffffffffff021916908373ffffffffffffffffffffffffffffffffffffffff160217905550610a6f8061005e6000396000f300606060405260043610610078576000357c0100000000000000000000000000000000000000000000000000000000900463ffffffff168063111d81711461007d57806318b2a22e146101bf578063384969fc1461020857806399c874fb14610256578063b2ae35fa1461035d578063ccc843db146103cf575b600080fd5b341561008857600080fd5b610090610407565b6040518080602001806020018060200180602001858103855289818151815260200191508051906020019060200280838360005b838110156100df5780820151818401526020810190506100c4565b50505050905001858103845288818151815260200191508051906020019060200280838360005b83811015610121578082015181840152602081019050610106565b50505050905001858103835287818151815260200191508051906020019060200280838360005b83811015610163578082015181840152602081019050610148565b50505050905001858103825286818151815260200191508051906020019060200280838360005b838110156101a557808201518184015260208101905061018a565b505050509050019850505050505050505060405180910390f35b34156101ca57600080fd5b6101f26004808035906020019091908035906020019091908035906020019091905050610633565b6040518082815260200191505060405180910390f35b341561021357600080fd5b6102546004808035600019169060200190919080356000191690602001909190803560001916906020019091908035600019169060200190919050506106cf565b005b341561026157600080fd5b610343600480803560001916906020019091908035600019169060200190919080356000191690602001909190803560001916906020019091908035906020019082018035906020019080806020026020016040519081016040528093929190818152602001838360200280828437820191505050505050919080359060200190820180359060200190808060200260200160405190810160405280939291908181526020018383602002808284378201915050505050509190803563ffffffff16906020019091908035906020019091908035906020019091905050610773565b604051808215151515815260200191505060405180910390f35b341561036857600080fd5b610384600480803563ffffffff16906020019091905050610834565b60405180856000191660001916815260200184600019166000191681526020018360001916600019168152602001826000191660001916815260200194505050505060405180910390f35b34156103da57600080fd5b610405600480803563ffffffff1690602001909190803563ffffffff169060200190919050506108e5565b005b61040f6109be565b6104176109be565b61041f6109be565b6104276109be565b61042f6109be565b6104376109be565b61043f6109be565b6104476109be565b600060028054905060405180591061045c5750595b908082528060200260200182016040525094506002805490506040518059106104825750595b908082528060200260200182016040525093506002805490506040518059106104a85750595b908082528060200260200182016040525092506002805490506040518059106104ce5750595b90808252806020026020018201604052509150600090505b60028054905081101561061c5760028181548110151561050257fe5b906000526020600020906004020160000154858281518110151561052257fe5b90602001906020020190600019169081600019168152505060028181548110151561054957fe5b906000526020600020906004020160010154848281518110151561056957fe5b90602001906020020190600019169081600019168152505060028181548110151561059057fe5b90600052602060002090600402016002015483828151811015156105b057fe5b9060200190602002019060001916908160001916815250506002818154811015156105d757fe5b90600052602060002090600402016003015482828151811015156105f757fe5b90602001906020020190600019169081600019168152505080806001019150506104e6565b848484849850985098509850505050505090919293565b600080600080600186141561064a578693506106c5565b600192505b848310156106c4578483880a1015156106b757828681151561066d57fe5b049150828681151561067b57fe5b069050848582890a81151561068c57fe5b066106a587868b0a81151561069d57fe5b068589610633565b028115156106af57fe5b0693506106c5565b828060010193505061064f565b5b5050509392505050565b600280548060010182816106e391906109d2565b91600052602060002090600402016000608060405190810160405280886000191681526020018760001916815260200186600019168152602001856000191681525090919091506000820151816000019060001916905560208201518160010190600019169055604082015181600201906000191690556060820151816003019060001916905550505050505050565b6000806000600160008763ffffffff1663ffffffff16815260200190815260200160002060009054906101000a900463ffffffff169150600090505b848110156108145787818151811015156107c557fe5b906020019060200201516107f788838151811015156107e057fe5b906020019060200201518463ffffffff1687610633565b1415156108075760009250610825565b80806001019150506107af565b6108208c8c8c8c6106cf565b600192505b50509998505050505050505050565b60008060008060028563ffffffff1681548110151561084f57fe5b90600052602060002090600402016000015460028663ffffffff1681548110151561087657fe5b90600052602060002090600402016001015460028763ffffffff1681548110151561089d57fe5b90600052602060002090600402016002015460028863ffffffff168154811015156108c457fe5b90600052602060002090600402016003015493509350935093509193509193565b6000809054906101000a900473ffffffffffffffffffffffffffffffffffffffff1673ffffffffffffffffffffffffffffffffffffffff163373ffffffffffffffffffffffffffffffffffffffff1614801561097657506000600160008463ffffffff1663ffffffff16815260200190815260200160002060009054906101000a900463ffffffff1663ffffffff16145b156109ba5780600160008463ffffffff1663ffffffff16815260200190815260200160002060006101000a81548163ffffffff021916908363ffffffff1602179055505b5050565b602060405190810160405280600081525090565b8154818355818115116109ff576004028160040283600052602060002091820191016109fe9190610a04565b5b505050565b610a4091905b80821115610a3c5760008082016000905560018201600090556002820160009055600382016000905550600401610a0a565b5090565b905600a165627a7a72305820baa967937b0f8ebc221467f6bb7dd4eb9f77c23f67f2e9e2c190510901b9f9360029",
  "source": "pragma solidity ~0.4.18;\n\n\ncontract News{\n    \n    //the owner of the contract to add User\n    address owner;\n    \n    /*\n    *uint ===> user id\n    *uint ===> public key\n    */\n    \n    mapping(uint32 => uint32) User;\n    //variable meant for info\n    struct news {\n    bytes32  image1;\n    bytes32  image2;\n    bytes32  info1;\n    bytes32  info2;\n    }   \n    \n    news[] data;\n    //constructor for initializing the user\n    function News() public{\n        owner = msg.sender;\n    }\n    \n    \n    //only the owner can create the User who can add the data to the blockchain\n    function createUser(uint32 id,uint32 publicKey) public{\n        if(msg.sender == owner && User[id] == 0){ \n        User[id] = publicKey;\n        }\n    }\n    \n    function simplifyPower(uint val,uint pk,uint n) public constant returns (uint){\n        if(pk == 1){\n          return val;\n        }\n\n        for(uint j = 1;j<(n);j++){\n          if((val ** j ) >= n){\n            uint pw = uint(pk/j);\n            uint rem = pk%j;\n            return ((simplifyPower((val ** j) % n,pw,n) * ((val ** rem) % n)) % n);     \n\n          }\n          else{\n            continue;\n          }\n        }\n      }\n      \n     \n    function verify(bytes32 img1,bytes32 img2,bytes32 Msg1,bytes32 Msg2,uint[] Msg,uint[] cipherText,uint32 id,uint size,uint N) public returns(bool){\n        uint32 publicKey = User[id];\n        for(uint i=0;i<size;i++){\n            if(simplifyPower(cipherText[i],publicKey,N) != Msg[i]){\n                return false;\n            }\n        }\n        insertNews(img1,img2,Msg1,Msg2);\n        return true;\n    }\n    \n    function insertNews(bytes32 img1,bytes32 img2,bytes32 Msg1,bytes32 Msg2) public{\n        data.push(news(img1,img2,Msg1,Msg2));\n\n    }\n    \n    function getNews() public constant returns(bytes32[],bytes32[],bytes32[],bytes32[]){\n        bytes32[] memory img1 = new bytes32[](data.length);\n        bytes32[] memory img2 = new bytes32[](data.length);\n        bytes32[] memory Msg1 = new bytes32[](data.length);\n        bytes32[] memory Msg2 = new bytes32[](data.length);\n        \n        for(uint i=0;i < data.length;i++){\n            img1[i] = data[i].image1;\n            img2[i] = data[i].image2;\n            Msg1[i] = data[i].info1;\n            Msg2[i] = data[i].info2;\n        }\n        return (img1,img2,Msg1,Msg2);\n    }\n    \n    //specific news\n    function oneNews(uint32 id) public constant returns(bytes32,bytes32,bytes32,bytes32){\n        return (data[id].image1,data[id].image2,data[id].info1,data[id].info2);\n    }\n    \n    \n}\n",
  "sourcePath": "/media/undefined/needs/competition/contracts/News.sol",
  "compiler": {
    "name": "solc",
    "version": "0.4.18+commit.9cf6e910.Emscripten.clang"
  },
  "schemaVersion": "2.0.0",
  "updatedAt": "2018-03-16T06:37:55.372Z"
}